{
  "_format": "hh-sol-artifact-1",
  "contractName": "Crowdsale",
  "sourceName": "contracts/Crowdsale.sol",
  "abi": [
    {
      "inputs": [
        {
          "internalType": "address",
          "name": "tokenAddress",
          "type": "address"
        },
        {
          "internalType": "uint256",
          "name": "_rate",
          "type": "uint256"
        }
      ],
      "stateMutability": "nonpayable",
      "type": "constructor"
    },
    {
      "inputs": [
        {
          "internalType": "address",
          "name": "owner",
          "type": "address"
        }
      ],
      "name": "OwnableInvalidOwner",
      "type": "error"
    },
    {
      "inputs": [
        {
          "internalType": "address",
          "name": "account",
          "type": "address"
        }
      ],
      "name": "OwnableUnauthorizedAccount",
      "type": "error"
    },
    {
      "anonymous": false,
      "inputs": [
        {
          "indexed": true,
          "internalType": "address",
          "name": "previousOwner",
          "type": "address"
        },
        {
          "indexed": true,
          "internalType": "address",
          "name": "newOwner",
          "type": "address"
        }
      ],
      "name": "OwnershipTransferred",
      "type": "event"
    },
    {
      "inputs": [],
      "name": "buyTokens",
      "outputs": [],
      "stateMutability": "payable",
      "type": "function"
    },
    {
      "inputs": [],
      "name": "owner",
      "outputs": [
        {
          "internalType": "address",
          "name": "",
          "type": "address"
        }
      ],
      "stateMutability": "view",
      "type": "function"
    },
    {
      "inputs": [],
      "name": "rate",
      "outputs": [
        {
          "internalType": "uint256",
          "name": "",
          "type": "uint256"
        }
      ],
      "stateMutability": "view",
      "type": "function"
    },
    {
      "inputs": [],
      "name": "renounceOwnership",
      "outputs": [],
      "stateMutability": "nonpayable",
      "type": "function"
    },
    {
      "inputs": [],
      "name": "token",
      "outputs": [
        {
          "internalType": "contract IERC20",
          "name": "",
          "type": "address"
        }
      ],
      "stateMutability": "view",
      "type": "function"
    },
    {
      "inputs": [
        {
          "internalType": "address",
          "name": "newOwner",
          "type": "address"
        }
      ],
      "name": "transferOwnership",
      "outputs": [],
      "stateMutability": "nonpayable",
      "type": "function"
    },
    {
      "inputs": [],
      "name": "withdraw",
      "outputs": [],
      "stateMutability": "nonpayable",
      "type": "function"
    }
  ],
  "bytecode": "0x608060405234801561001057600080fd5b50604051610bcb380380610bcb83398181016040528101906100329190610261565b33600073ffffffffffffffffffffffffffffffffffffffff168173ffffffffffffffffffffffffffffffffffffffff16036100a55760006040517f1e4fbdf700000000000000000000000000000000000000000000000000000000815260040161009c91906102b0565b60405180910390fd5b6100b48161010460201b60201c565b5081600160006101000a81548173ffffffffffffffffffffffffffffffffffffffff021916908373ffffffffffffffffffffffffffffffffffffffff1602179055508060028190555050506102cb565b60008060009054906101000a900473ffffffffffffffffffffffffffffffffffffffff169050816000806101000a81548173ffffffffffffffffffffffffffffffffffffffff021916908373ffffffffffffffffffffffffffffffffffffffff1602179055508173ffffffffffffffffffffffffffffffffffffffff168173ffffffffffffffffffffffffffffffffffffffff167f8be0079c531659141344cd1fd0a4f28419497f9722a3daafe3b4186f6b6457e060405160405180910390a35050565b600080fd5b600073ffffffffffffffffffffffffffffffffffffffff82169050919050565b60006101f8826101cd565b9050919050565b610208816101ed565b811461021357600080fd5b50565b600081519050610225816101ff565b92915050565b6000819050919050565b61023e8161022b565b811461024957600080fd5b50565b60008151905061025b81610235565b92915050565b60008060408385031215610278576102776101c8565b5b600061028685828601610216565b92505060206102978582860161024c565b9150509250929050565b6102aa816101ed565b82525050565b60006020820190506102c560008301846102a1565b92915050565b6108f1806102da6000396000f3fe6080604052600436106100705760003560e01c80638da5cb5b1161004e5780638da5cb5b146100ce578063d0febe4c146100f9578063f2fde38b14610103578063fc0c546a1461012c57610070565b80632c4e722e146100755780633ccfd60b146100a0578063715018a6146100b7575b600080fd5b34801561008157600080fd5b5061008a610157565b6040516100979190610597565b60405180910390f35b3480156100ac57600080fd5b506100b561015d565b005b3480156100c357600080fd5b506100cc6101ae565b005b3480156100da57600080fd5b506100e36101c2565b6040516100f091906105f3565b60405180910390f35b6101016101eb565b005b34801561010f57600080fd5b5061012a6004803603810190610125919061063f565b61037f565b005b34801561013857600080fd5b50610141610405565b60405161014e91906106cb565b60405180910390f35b60025481565b61016561042b565b3373ffffffffffffffffffffffffffffffffffffffff166108fc479081150290604051600060405180830381858888f193505050501580156101ab573d6000803e3d6000fd5b50565b6101b661042b565b6101c060006104b2565b565b60008060009054906101000a900473ffffffffffffffffffffffffffffffffffffffff16905090565b6000600254346101fb9190610715565b905080600160009054906101000a900473ffffffffffffffffffffffffffffffffffffffff1673ffffffffffffffffffffffffffffffffffffffff166370a08231306040518263ffffffff1660e01b815260040161025991906105f3565b602060405180830381865afa158015610276573d6000803e3d6000fd5b505050506040513d601f19601f8201168201806040525081019061029a9190610783565b10156102db576040517f08c379a00000000000000000000000000000000000000000000000000000000081526004016102d29061080d565b60405180910390fd5b600160009054906101000a900473ffffffffffffffffffffffffffffffffffffffff1673ffffffffffffffffffffffffffffffffffffffff1663a9059cbb33836040518363ffffffff1660e01b815260040161033892919061082d565b6020604051808303816000875af1158015610357573d6000803e3d6000fd5b505050506040513d601f19601f8201168201806040525081019061037b919061088e565b5050565b61038761042b565b600073ffffffffffffffffffffffffffffffffffffffff168173ffffffffffffffffffffffffffffffffffffffff16036103f95760006040517f1e4fbdf70000000000000000000000000000000000000000000000000000000081526004016103f091906105f3565b60405180910390fd5b610402816104b2565b50565b600160009054906101000a900473ffffffffffffffffffffffffffffffffffffffff1681565b610433610576565b73ffffffffffffffffffffffffffffffffffffffff166104516101c2565b73ffffffffffffffffffffffffffffffffffffffff16146104b057610474610576565b6040517f118cdaa70000000000000000000000000000000000000000000000000000000081526004016104a791906105f3565b60405180910390fd5b565b60008060009054906101000a900473ffffffffffffffffffffffffffffffffffffffff169050816000806101000a81548173ffffffffffffffffffffffffffffffffffffffff021916908373ffffffffffffffffffffffffffffffffffffffff1602179055508173ffffffffffffffffffffffffffffffffffffffff168173ffffffffffffffffffffffffffffffffffffffff167f8be0079c531659141344cd1fd0a4f28419497f9722a3daafe3b4186f6b6457e060405160405180910390a35050565b600033905090565b6000819050919050565b6105918161057e565b82525050565b60006020820190506105ac6000830184610588565b92915050565b600073ffffffffffffffffffffffffffffffffffffffff82169050919050565b60006105dd826105b2565b9050919050565b6105ed816105d2565b82525050565b600060208201905061060860008301846105e4565b92915050565b600080fd5b61061c816105d2565b811461062757600080fd5b50565b60008135905061063981610613565b92915050565b6000602082840312156106555761065461060e565b5b60006106638482850161062a565b91505092915050565b6000819050919050565b600061069161068c610687846105b2565b61066c565b6105b2565b9050919050565b60006106a382610676565b9050919050565b60006106b582610698565b9050919050565b6106c5816106aa565b82525050565b60006020820190506106e060008301846106bc565b92915050565b7f4e487b7100000000000000000000000000000000000000000000000000000000600052601160045260246000fd5b60006107208261057e565b915061072b8361057e565b92508282026107398161057e565b915082820484148315176107505761074f6106e6565b5b5092915050565b6107608161057e565b811461076b57600080fd5b50565b60008151905061077d81610757565b92915050565b6000602082840312156107995761079861060e565b5b60006107a78482850161076e565b91505092915050565b600082825260208201905092915050565b7f4e6f7420656e6f75676820746f6b656e7320696e20636f6e7472616374000000600082015250565b60006107f7601d836107b0565b9150610802826107c1565b602082019050919050565b60006020820190508181036000830152610826816107ea565b9050919050565b600060408201905061084260008301856105e4565b61084f6020830184610588565b9392505050565b60008115159050919050565b61086b81610856565b811461087657600080fd5b50565b60008151905061088881610862565b92915050565b6000602082840312156108a4576108a361060e565b5b60006108b284828501610879565b9150509291505056fea264697066735822122039a9b8a1dca05b5e288b117d8f4d989aeda0a786b379aa519d5a676266b47bb464736f6c634300081c0033",
  "linkReferences": {},
  "deployedLinkReferences": {}
}